{
  "_format": "hh-sol-artifact-1",
  "contractName": "GeminziSoul",
  "sourceName": "contracts/GeminziSoul.sol",
  "abi": [
    {
      "inputs": [],
      "stateMutability": "nonpayable",
      "type": "constructor"
    },
    {
      "inputs": [
        {
          "internalType": "address",
          "name": "sender",
          "type": "address"
        },
        {
          "internalType": "uint256",
          "name": "tokenId",
          "type": "uint256"
        },
        {
          "internalType": "address",
          "name": "owner",
          "type": "address"
        }
      ],
      "name": "ERC721IncorrectOwner",
      "type": "error"
    },
    {
      "inputs": [
        {
          "internalType": "address",
          "name": "operator",
          "type": "address"
        },
        {
          "internalType": "uint256",
          "name": "tokenId",
          "type": "uint256"
        }
      ],
      "name": "ERC721InsufficientApproval",
      "type": "error"
    },
    {
      "inputs": [
        {
          "internalType": "address",
          "name": "approver",
          "type": "address"
        }
      ],
      "name": "ERC721InvalidApprover",
      "type": "error"
    },
    {
      "inputs": [
        {
          "internalType": "address",
          "name": "operator",
          "type": "address"
        }
      ],
      "name": "ERC721InvalidOperator",
      "type": "error"
    },
    {
      "inputs": [
        {
          "internalType": "address",
          "name": "owner",
          "type": "address"
        }
      ],
      "name": "ERC721InvalidOwner",
      "type": "error"
    },
    {
      "inputs": [
        {
          "internalType": "address",
          "name": "receiver",
          "type": "address"
        }
      ],
      "name": "ERC721InvalidReceiver",
      "type": "error"
    },
    {
      "inputs": [
        {
          "internalType": "address",
          "name": "sender",
          "type": "address"
        }
      ],
      "name": "ERC721InvalidSender",
      "type": "error"
    },
    {
      "inputs": [
        {
          "internalType": "uint256",
          "name": "tokenId",
          "type": "uint256"
        }
      ],
      "name": "ERC721NonexistentToken",
      "type": "error"
    },
    {
      "inputs": [
        {
          "internalType": "address",
          "name": "owner",
          "type": "address"
        }
      ],
      "name": "OwnableInvalidOwner",
      "type": "error"
    },
    {
      "inputs": [
        {
          "internalType": "address",
          "name": "account",
          "type": "address"
        }
      ],
      "name": "OwnableUnauthorizedAccount",
      "type": "error"
    },
    {
      "anonymous": false,
      "inputs": [
        {
          "indexed": true,
          "internalType": "address",
          "name": "owner",
          "type": "address"
        },
        {
          "indexed": true,
          "internalType": "address",
          "name": "approved",
          "type": "address"
        },
        {
          "indexed": true,
          "internalType": "uint256",
          "name": "tokenId",
          "type": "uint256"
        }
      ],
      "name": "Approval",
      "type": "event"
    },
    {
      "anonymous": false,
      "inputs": [
        {
          "indexed": true,
          "internalType": "address",
          "name": "owner",
          "type": "address"
        },
        {
          "indexed": true,
          "internalType": "address",
          "name": "operator",
          "type": "address"
        },
        {
          "indexed": false,
          "internalType": "bool",
          "name": "approved",
          "type": "bool"
        }
      ],
      "name": "ApprovalForAll",
      "type": "event"
    },
    {
      "anonymous": false,
      "inputs": [
        {
          "indexed": true,
          "internalType": "address",
          "name": "previousOwner",
          "type": "address"
        },
        {
          "indexed": true,
          "internalType": "address",
          "name": "newOwner",
          "type": "address"
        }
      ],
      "name": "OwnershipTransferred",
      "type": "event"
    },
    {
      "anonymous": false,
      "inputs": [
        {
          "indexed": true,
          "internalType": "address",
          "name": "from",
          "type": "address"
        },
        {
          "indexed": true,
          "internalType": "address",
          "name": "to",
          "type": "address"
        },
        {
          "indexed": true,
          "internalType": "uint256",
          "name": "tokenId",
          "type": "uint256"
        }
      ],
      "name": "Transfer",
      "type": "event"
    },
    {
      "inputs": [
        {
          "internalType": "address",
          "name": "",
          "type": "address"
        }
      ],
      "name": "addressToId",
      "outputs": [
        {
          "internalType": "uint256",
          "name": "",
          "type": "uint256"
        }
      ],
      "stateMutability": "view",
      "type": "function"
    },
    {
      "inputs": [
        {
          "internalType": "address",
          "name": "to",
          "type": "address"
        },
        {
          "internalType": "uint256",
          "name": "tokenId",
          "type": "uint256"
        }
      ],
      "name": "approve",
      "outputs": [],
      "stateMutability": "nonpayable",
      "type": "function"
    },
    {
      "inputs": [
        {
          "internalType": "address",
          "name": "owner",
          "type": "address"
        }
      ],
      "name": "balanceOf",
      "outputs": [
        {
          "internalType": "uint256",
          "name": "",
          "type": "uint256"
        }
      ],
      "stateMutability": "view",
      "type": "function"
    },
    {
      "inputs": [
        {
          "internalType": "uint256",
          "name": "tokenId",
          "type": "uint256"
        }
      ],
      "name": "getApproved",
      "outputs": [
        {
          "internalType": "address",
          "name": "",
          "type": "address"
        }
      ],
      "stateMutability": "view",
      "type": "function"
    },
    {
      "inputs": [
        {
          "internalType": "address",
          "name": "user",
          "type": "address"
        }
      ],
      "name": "getMySoul",
      "outputs": [
        {
          "internalType": "uint128",
          "name": "",
          "type": "uint128"
        },
        {
          "internalType": "uint128",
          "name": "",
          "type": "uint128"
        },
        {
          "internalType": "uint256",
          "name": "",
          "type": "uint256"
        }
      ],
      "stateMutability": "view",
      "type": "function"
    },
    {
      "inputs": [
        {
          "internalType": "uint256",
          "name": "tokenId",
          "type": "uint256"
        }
      ],
      "name": "getSoul",
      "outputs": [
        {
          "internalType": "uint128",
          "name": "",
          "type": "uint128"
        },
        {
          "internalType": "uint128",
          "name": "",
          "type": "uint128"
        }
      ],
      "stateMutability": "view",
      "type": "function"
    },
    {
      "inputs": [],
      "name": "gmnzToken",
      "outputs": [
        {
          "internalType": "contract IERC20",
          "name": "",
          "type": "address"
        }
      ],
      "stateMutability": "view",
      "type": "function"
    },
    {
      "inputs": [
        {
          "internalType": "uint256",
          "name": "tokenId",
          "type": "uint256"
        },
        {
          "internalType": "uint128",
          "name": "amount",
          "type": "uint128"
        }
      ],
      "name": "grow",
      "outputs": [],
      "stateMutability": "nonpayable",
      "type": "function"
    },
    {
      "inputs": [
        {
          "internalType": "address",
          "name": "",
          "type": "address"
        }
      ],
      "name": "hasSoul",
      "outputs": [
        {
          "internalType": "bool",
          "name": "",
          "type": "bool"
        }
      ],
      "stateMutability": "view",
      "type": "function"
    },
    {
      "inputs": [
        {
          "internalType": "address",
          "name": "owner",
          "type": "address"
        },
        {
          "internalType": "address",
          "name": "operator",
          "type": "address"
        }
      ],
      "name": "isApprovedForAll",
      "outputs": [
        {
          "internalType": "bool",
          "name": "",
          "type": "bool"
        }
      ],
      "stateMutability": "view",
      "type": "function"
    },
    {
      "inputs": [],
      "name": "mintIdentity",
      "outputs": [],
      "stateMutability": "nonpayable",
      "type": "function"
    },
    {
      "inputs": [],
      "name": "name",
      "outputs": [
        {
          "internalType": "string",
          "name": "",
          "type": "string"
        }
      ],
      "stateMutability": "view",
      "type": "function"
    },
    {
      "inputs": [],
      "name": "owner",
      "outputs": [
        {
          "internalType": "address",
          "name": "",
          "type": "address"
        }
      ],
      "stateMutability": "view",
      "type": "function"
    },
    {
      "inputs": [
        {
          "internalType": "uint256",
          "name": "tokenId",
          "type": "uint256"
        }
      ],
      "name": "ownerOf",
      "outputs": [
        {
          "internalType": "address",
          "name": "",
          "type": "address"
        }
      ],
      "stateMutability": "view",
      "type": "function"
    },
    {
      "inputs": [],
      "name": "renounceOwnership",
      "outputs": [],
      "stateMutability": "nonpayable",
      "type": "function"
    },
    {
      "inputs": [
        {
          "internalType": "uint256",
          "name": "amount",
          "type": "uint256"
        }
      ],
      "name": "sacrifice",
      "outputs": [],
      "stateMutability": "nonpayable",
      "type": "function"
    },
    {
      "inputs": [
        {
          "internalType": "address",
          "name": "from",
          "type": "address"
        },
        {
          "internalType": "address",
          "name": "to",
          "type": "address"
        },
        {
          "internalType": "uint256",
          "name": "tokenId",
          "type": "uint256"
        }
      ],
      "name": "safeTransferFrom",
      "outputs": [],
      "stateMutability": "nonpayable",
      "type": "function"
    },
    {
      "inputs": [
        {
          "internalType": "address",
          "name": "from",
          "type": "address"
        },
        {
          "internalType": "address",
          "name": "to",
          "type": "address"
        },
        {
          "internalType": "uint256",
          "name": "tokenId",
          "type": "uint256"
        },
        {
          "internalType": "bytes",
          "name": "data",
          "type": "bytes"
        }
      ],
      "name": "safeTransferFrom",
      "outputs": [],
      "stateMutability": "nonpayable",
      "type": "function"
    },
    {
      "inputs": [
        {
          "internalType": "uint256",
          "name": "tokenId",
          "type": "uint256"
        },
        {
          "internalType": "uint128",
          "name": "severity",
          "type": "uint128"
        }
      ],
      "name": "scar",
      "outputs": [],
      "stateMutability": "nonpayable",
      "type": "function"
    },
    {
      "inputs": [
        {
          "internalType": "address",
          "name": "operator",
          "type": "address"
        },
        {
          "internalType": "bool",
          "name": "approved",
          "type": "bool"
        }
      ],
      "name": "setApprovalForAll",
      "outputs": [],
      "stateMutability": "nonpayable",
      "type": "function"
    },
    {
      "inputs": [
        {
          "internalType": "address",
          "name": "_token",
          "type": "address"
        }
      ],
      "name": "setToken",
      "outputs": [],
      "stateMutability": "nonpayable",
      "type": "function"
    },
    {
      "inputs": [
        {
          "internalType": "uint256",
          "name": "",
          "type": "uint256"
        }
      ],
      "name": "souls",
      "outputs": [
        {
          "internalType": "uint128",
          "name": "vitality",
          "type": "uint128"
        },
        {
          "internalType": "uint128",
          "name": "scars",
          "type": "uint128"
        }
      ],
      "stateMutability": "view",
      "type": "function"
    },
    {
      "inputs": [
        {
          "internalType": "bytes4",
          "name": "interfaceId",
          "type": "bytes4"
        }
      ],
      "name": "supportsInterface",
      "outputs": [
        {
          "internalType": "bool",
          "name": "",
          "type": "bool"
        }
      ],
      "stateMutability": "view",
      "type": "function"
    },
    {
      "inputs": [],
      "name": "symbol",
      "outputs": [
        {
          "internalType": "string",
          "name": "",
          "type": "string"
        }
      ],
      "stateMutability": "view",
      "type": "function"
    },
    {
      "inputs": [
        {
          "internalType": "uint256",
          "name": "tokenId",
          "type": "uint256"
        }
      ],
      "name": "tokenURI",
      "outputs": [
        {
          "internalType": "string",
          "name": "",
          "type": "string"
        }
      ],
      "stateMutability": "view",
      "type": "function"
    },
    {
      "inputs": [
        {
          "internalType": "address",
          "name": "from",
          "type": "address"
        },
        {
          "internalType": "address",
          "name": "to",
          "type": "address"
        },
        {
          "internalType": "uint256",
          "name": "tokenId",
          "type": "uint256"
        }
      ],
      "name": "transferFrom",
      "outputs": [],
      "stateMutability": "nonpayable",
      "type": "function"
    },
    {
      "inputs": [
        {
          "internalType": "address",
          "name": "newOwner",
          "type": "address"
        }
      ],
      "name": "transferOwnership",
      "outputs": [],
      "stateMutability": "nonpayable",
      "type": "function"
    }
  ],
  "bytecode": "0x6080346200037e576001600160401b039060408181018381118382101762000368578152601082526020916f47656d696e7a69204964656e7469747960801b838201528151938285018581108282111762000368578352600585526411d4d3d55360da1b84860152815181811162000368576000948554916001948584811c941680156200035d575b8385101462000349578190601f94858111620002f6575b5083908583116001146200029257899262000286575b5050600019600383901b1c191690851b1786555b8651928311620002725783548481811c9116801562000267575b8282101462000253578281116200020b575b5080918311600114620001a457508495829394959262000198575b5050600019600383901b1c191690821b1790555b3315620001805760068054336001600160a01b03198216811790925591519290916001600160a01b0316907f8be0079c531659141344cd1fd0a4f28419497f9722a3daafe3b4186f6b6457e09080a361162a9081620003848239f35b51631e4fbdf760e01b81526004810191909152602490fd5b01519050388062000110565b90601f198316968487528287209287905b898210620001f3575050838596979810620001d9575b505050811b01905562000124565b015160001960f88460031b161c19169055388080620001cb565b808785968294968601518155019501930190620001b5565b8487528187208380860160051c82019284871062000249575b0160051c019085905b8281106200023d575050620000f5565b8881550185906200022d565b9250819262000224565b634e487b7160e01b87526022600452602487fd5b90607f1690620000e3565b634e487b7160e01b86526041600452602486fd5b015190503880620000b5565b898052848a208894509190601f1984168b5b87828210620002df5750508411620002c5575b505050811b018655620000c9565b015160001960f88460031b161c19169055388080620002b7565b8385015186558b97909501949384019301620002a4565b9091508880528389208580850160051c8201928686106200033f575b918991869594930160051c01915b828110620003305750506200009f565b8b815585945089910162000320565b9250819262000312565b634e487b7160e01b88526022600452602488fd5b93607f169362000088565b634e487b7160e01b600052604160045260246000fd5b600080fdfe6080604081815260048036101561001557600080fd5b600092833560e01c90816301ffc9a7146110125750806306fdde0314610f47578063081812fc14610f0c578063095ea7b314610e30578063144fa6d714610deb57806323b872dd14610dd3578063246a01f714610d9857806324dd865514610cd1578063268e15a714610ca857806342842e0e14610c795780636352211e14610c48578063653b59d514610c0457806370a0823114610baf578063715018a614610b525780637f0df684146101de5780638da5cb5b14610b2957806395d89b4114610a10578063a22cb46514610973578063a68bfa6e146105f3578063b88d4fde1461055e578063bdd7520214610520578063c87b56dd146104d1578063cb0e0d7d14610499578063e178e05114610275578063e985e9c514610223578063f0693899146101de5763f2fde38b1461014c57600080fd5b346101da5760203660031901126101da576101656110be565b9061016e6111ba565b6001600160a01b039182169283156101c4575050600654826bffffffffffffffffffffffff60a01b821617600655167f8be0079c531659141344cd1fd0a4f28419497f9722a3daafe3b4186f6b6457e08380a380f35b51631e4fbdf760e01b8152908101849052602490fd5b8280fd5b50346101da5760203660031901126101da5735825260096020908152918190205490516001600160801b038216815260809190911c91810191909152604090f35b0390f35b50503461027157806003193601126102715760ff816020936102436110be565b61024b6110d9565b6001600160a01b0391821683526005875283832091168252855220549151911615158152f35b5080fd5b5091903461027157602090816003193601126101da57833593338452600b835260ff828520541615610447576008546001600160a01b031680156103f95783859160648551809481936323b872dd60e01b8352338884015261dead60248401528b60448401525af19081156103ef5785916103b5575b501561034f5750670de0b6b3a764000092936001600160801b039384910416918215610346575b600990338652600a815282862054865252832091610334835492828416611574565b16906001600160801b03191617905580f35b60019250610312565b9060849281519262461bcd60e51b845283015260248201527f4c65207361637269666963652061206574652072656a6574652028466f6e647360448201527f20696e737566666973616e7473206f75206e6f6e20617070726f75766573292e6064820152fd5b90508381813d83116103e8575b6103cc818361117c565b810103126103e4575180151581036103e457386102eb565b8480fd5b503d6103c2565b83513d87823e3d90fd5b5082608492519162461bcd60e51b83528201526024808201527f4c27417574656c206e276573742070617320636f6e6e6563746520617520546f60448201526335b2b71760e11b6064820152fd5b82608492519162461bcd60e51b8352820152602860248201527f566f757320646576657a2061766f697220756e6520616d6520706f757220736160448201526731b934b334b2b91760c11b6064820152fd5b5050346102715760203660031901126102715760209181906001600160a01b036104c16110be565b168152600a845220549051908152f35b50919034610271576020366003190112610271576104f261021f93356113eb565b508181516104ff8161114a565b5280519161050c8361114a565b82525191829160208352602083019061107e565b5050346102715760203660031901126102715760209160ff9082906001600160a01b0361054b6110be565b168152600b855220541690519015158152f35b5090346101da5760803660031901126101da576105796110be565b6105816110d9565b60443591856064359567ffffffffffffffff8711610271573660238801121561027157860135956105bd6105b48861119e565b9651968761117c565b868652366024888301011161027157866105f09760246020930183890137860101526105ea8383836111e6565b33611426565b80f35b509190346102715781600319360112610271573382526020600b815260ff82842054166109315760075460001980821461091e576001820160075583519061063a8261114a565b85825233156109075782865260028452848620546001600160a01b039081161515806108ff575b6108bc578390818852600286528688205416801515928361088a575b503380895260038752878920805460010190558289526002875287892080546001600160a01b03191682179055907fddf252ad1be2c89b69c2b068fc378daa952ba7f163c4a11628f55a4df523b3ef8980a461087357333b61075c575b50825183810181811067ffffffffffffffff821117610749578452600a8152808301858152828652600984528486209151905160801b6001600160801b0319166001600160801b0391909116179055600b9190338552600a825283852055528120805460ff1916600117905580f35b634e487b7160e01b865260418752602486fd5b8395949551838180610795630a85bd0160e11b95868352338b8401528b602484015287604484015260806064840152608483019061107e565b03818a335af187918161082f575b50610801575050503d6000146107f8573d6107bd8161119e565b906107ca8451928361117c565b81528094823d92013e5b835193846107f2578251633250574960e11b81523381860152602490fd5b84925001fd5b606093506107d4565b9495946001600160e01b0319160361081957386106da565b8251633250574960e11b81523381870152602490fd5b9091508481813d831161086c575b610847818361117c565b8101031261086857516001600160e01b0319811681036108685790386107a3565b8780fd5b503d61083d565b83516339e3563760e11b8152808701869052602490fd5b600083815260046020526040902080546001600160a01b0319169055818952600387528789209081540190553861067d565b855162461bcd60e51b8152808901869052601c60248201527f566f74726520616d6520657374206c6965652061206a616d6169732e000000006044820152606490fd5b506001610661565b8451633250574960e11b8152808801879052602490fd5b634e487b7160e01b855260118652602485fd5b8390606492519162461bcd60e51b8352820152601b60248201527f556e65207365756c6520616d652070617220706572736f6e6e652e00000000006044820152fd5b5090346101da57806003193601126101da5761098d6110be565b90602435918215158093036103e4576001600160a01b03169283156109fb5750338452600560205280842083855260205280842060ff1981541660ff8416179055519081527f17307eab39ab6107e8899845ad3d59bd9653f200f220920489ca2b5937696c3160203392a380f35b836024925191630b61174360e31b8352820152fd5b509134610b265780600319360112610b26578151918160019283549384811c91818616958615610b1c575b6020968785108114610b09578899509688969785829a529182600014610ae2575050600114610a87575b50505061021f9291610a7891038561117c565b5192828493845283019061107e565b91908693508083527fb10e2d527612073b26eecdfd717e6a320cf44b4afac2b0732d9fcbe2b7fa0cf65b828410610aca5750505082010181610a7861021f610a65565b8054848a018601528895508794909301928101610ab1565b60ff19168782015293151560051b86019093019350849250610a78915061021f9050610a65565b634e487b7160e01b835260228a52602483fd5b92607f1692610a3b565b80fd5b50503461027157816003193601126102715760065490516001600160a01b039091168152602090f35b8334610b265780600319360112610b2657610b6b6111ba565b600680546001600160a01b0319811690915581906001600160a01b03167f8be0079c531659141344cd1fd0a4f28419497f9722a3daafe3b4186f6b6457e08280a380f35b509134610b26576020366003190112610b26576001600160a01b03610bd26110be565b16928315610bef5750806020938392526003845220549051908152f35b91516322718ad960e21b815291820152602490fd5b50503461027157602036600319011261027157606090610c2a610c256110be565b6115a5565b9183919351936001600160801b038092168552166020840152820152f35b509134610b26576020366003190112610b265750610c68602092356113eb565b90516001600160a01b039091168152f35b505034610271576105f090610c8d366110ef565b91925192610c9a8461114a565b8584526105ea8383836111e6565b50503461027157816003193601126102715760085490516001600160a01b039091168152602090f35b50346101da57610ce036611124565b9290610cea6111ba565b8085526009602052610d26828620610d0686825460801c611574565b81546001600160801b031660809190911b6001600160801b031916179055565b845260096020528320918254916001600160801b03809216928383821611600014610d8157508354928284160390828211610d6e575016906001600160801b03191617905580f35b634e487b7160e01b865260119052602485fd5b6001600160801b0319166001179093555082915050f35b50503461027157610da836611124565b9190610db26111ba565b835260096020528220908154906103346001600160801b0391828416611574565b8334610b26576105f0610de5366110ef565b916111e6565b8334610b26576020366003190112610b2657610e056110be565b610e0d6111ba565b60018060a01b03166bffffffffffffffffffffffff60a01b600854161760085580f35b5090346101da57806003193601126101da57610e4a6110be565b91602435610e57816113eb565b33151580610ef9575b80610ed0575b610eba576001600160a01b039485169482918691167f8c5be1e5ebec7d5bd14f71427d1e84f3dd0314c0f7b2291e5b200ac8c7c3b9258880a48452602052822080546001600160a01b031916909117905580f35b835163a9fbf51f60e01b81523381850152602490fd5b506001600160a01b03811686526005602090815284872033885290528386205460ff1615610e66565b506001600160a01b038116331415610e60565b50346101da5760203660031901126101da57918260209335610f2d816113eb565b50825283528190205490516001600160a01b039091168152f35b509134610b265780600319360112610b265781519181825492600184811c91818616958615611008575b6020968785108114610b09578899509688969785829a529182600014610ae2575050600114610fad5750505061021f9291610a7891038561117c565b91908693508280527f290decd9548b62a8d60345a988386fc84ba6bc95484008f6362f93160ef3e5635b828410610ff05750505082010181610a7861021f610a65565b8054848a018601528895508794909301928101610fd7565b92607f1692610f71565b925050346101da5760203660031901126101da573563ffffffff60e01b81168091036101da57602092506380ac58cd60e01b811490811561106d575b811561105c575b5015158152f35b6301ffc9a760e01b14905038611055565b635b5e139f60e01b8114915061104e565b919082519283825260005b8481106110aa575050826000602080949584010152601f8019910116010190565b602081830181015184830182015201611089565b600435906001600160a01b03821682036110d457565b600080fd5b602435906001600160a01b03821682036110d457565b60609060031901126110d4576001600160a01b039060043582811681036110d4579160243590811681036110d4579060443590565b60409060031901126110d457600435906024356001600160801b03811681036110d45790565b6020810190811067ffffffffffffffff82111761116657604052565b634e487b7160e01b600052604160045260246000fd5b90601f8019910116810190811067ffffffffffffffff82111761116657604052565b67ffffffffffffffff811161116657601f01601f191660200190565b6006546001600160a01b031633036111ce57565b60405163118cdaa760e01b8152336004820152602490fd5b6001600160a01b0391821692909183156113d257600092828452602094600286526040958387872054161515806113ca575b6113875790849182875260028152848888205416968791331515806112f1575b509060027fddf252ad1be2c89b69c2b068fc378daa952ba7f163c4a11628f55a4df523b3ef92846112be575b858352600381528b8320805460010190558683525289812080546001600160a01b0319168517905580a4169283830361129d5750505050565b6064945051926364283d7b60e01b8452600484015260248301526044820152fd5b600087815260046020526040902080546001600160a01b0319169055848352600381528b83208054600019019055611264565b91939450915080611346575b1561130d57859291879138611238565b87868861132a576024915190637e27328960e01b82526004820152fd5b604491519063177e802f60e01b82523360048301526024820152fd5b50338714801561136b575b806112fd57508582526004815233858984205416146112fd565b5086825260058152878220338352815260ff8883205416611351565b60649087519062461bcd60e51b82526004820152601c60248201527f566f74726520616d6520657374206c6965652061206a616d6169732e000000006044820152fd5b506001611218565b604051633250574960e11b815260006004820152602490fd5b6000818152600260205260409020546001600160a01b031690811561140e575090565b60249060405190637e27328960e01b82526004820152fd5b90939192833b611438575b5050505050565b604051630a85bd0160e11b8082526001600160a01b03938416600483015295831660248201526044810191909152608060648201529492169260209291859061148590608483019061107e565b039483816000978189895af1869181611530575b506114fa575050503d6000146114f1573d6114b38161119e565b906114c1604051928361117c565b81528093823d92013e5b825192836114ec57604051633250574960e11b815260048101849052602490fd5b019050fd5b606092506114cb565b919450915063ffffffff60e01b160361151857503880808080611431565b60249060405190633250574960e11b82526004820152fd5b9091508481813d831161156d575b611548818361117c565b8101031261156957516001600160e01b031981168103611569579038611499565b8680fd5b503d61153e565b9190916001600160801b038080941691160191821161158f57565b634e487b7160e01b600052601160045260246000fd5b6001600160a01b03166000908152600b602052604081205460ff16156115ee57600a6020526040808220549182815260096020522054916001600160801b0383169260801c9190565b8091819056fea2646970667358221220c378b16694e7fac715d7f93b057e67e4742b941983824be96570213fe4c478c764736f6c63430008140033",
  "linkReferences": {},
  "deployedLinkReferences": {}
}