{
  "_format": "hh-sol-artifact-1",
  "contractName": "GeminziSoul",
  "sourceName": "contracts/GeminziSoul.sol",
  "abi": [
    {
      "inputs": [],
      "stateMutability": "nonpayable",
      "type": "constructor"
    },
    {
      "inputs": [
        {
          "internalType": "address",
          "name": "sender",
          "type": "address"
        },
        {
          "internalType": "uint256",
          "name": "tokenId",
          "type": "uint256"
        },
        {
          "internalType": "address",
          "name": "owner",
          "type": "address"
        }
      ],
      "name": "ERC721IncorrectOwner",
      "type": "error"
    },
    {
      "inputs": [
        {
          "internalType": "address",
          "name": "operator",
          "type": "address"
        },
        {
          "internalType": "uint256",
          "name": "tokenId",
          "type": "uint256"
        }
      ],
      "name": "ERC721InsufficientApproval",
      "type": "error"
    },
    {
      "inputs": [
        {
          "internalType": "address",
          "name": "approver",
          "type": "address"
        }
      ],
      "name": "ERC721InvalidApprover",
      "type": "error"
    },
    {
      "inputs": [
        {
          "internalType": "address",
          "name": "operator",
          "type": "address"
        }
      ],
      "name": "ERC721InvalidOperator",
      "type": "error"
    },
    {
      "inputs": [
        {
          "internalType": "address",
          "name": "owner",
          "type": "address"
        }
      ],
      "name": "ERC721InvalidOwner",
      "type": "error"
    },
    {
      "inputs": [
        {
          "internalType": "address",
          "name": "receiver",
          "type": "address"
        }
      ],
      "name": "ERC721InvalidReceiver",
      "type": "error"
    },
    {
      "inputs": [
        {
          "internalType": "address",
          "name": "sender",
          "type": "address"
        }
      ],
      "name": "ERC721InvalidSender",
      "type": "error"
    },
    {
      "inputs": [
        {
          "internalType": "uint256",
          "name": "tokenId",
          "type": "uint256"
        }
      ],
      "name": "ERC721NonexistentToken",
      "type": "error"
    },
    {
      "inputs": [
        {
          "internalType": "address",
          "name": "owner",
          "type": "address"
        }
      ],
      "name": "OwnableInvalidOwner",
      "type": "error"
    },
    {
      "inputs": [
        {
          "internalType": "address",
          "name": "account",
          "type": "address"
        }
      ],
      "name": "OwnableUnauthorizedAccount",
      "type": "error"
    },
    {
      "anonymous": false,
      "inputs": [
        {
          "indexed": true,
          "internalType": "address",
          "name": "owner",
          "type": "address"
        },
        {
          "indexed": true,
          "internalType": "address",
          "name": "approved",
          "type": "address"
        },
        {
          "indexed": true,
          "internalType": "uint256",
          "name": "tokenId",
          "type": "uint256"
        }
      ],
      "name": "Approval",
      "type": "event"
    },
    {
      "anonymous": false,
      "inputs": [
        {
          "indexed": true,
          "internalType": "address",
          "name": "owner",
          "type": "address"
        },
        {
          "indexed": true,
          "internalType": "address",
          "name": "operator",
          "type": "address"
        },
        {
          "indexed": false,
          "internalType": "bool",
          "name": "approved",
          "type": "bool"
        }
      ],
      "name": "ApprovalForAll",
      "type": "event"
    },
    {
      "anonymous": false,
      "inputs": [
        {
          "indexed": true,
          "internalType": "address",
          "name": "previousOwner",
          "type": "address"
        },
        {
          "indexed": true,
          "internalType": "address",
          "name": "newOwner",
          "type": "address"
        }
      ],
      "name": "OwnershipTransferred",
      "type": "event"
    },
    {
      "anonymous": false,
      "inputs": [
        {
          "indexed": true,
          "internalType": "address",
          "name": "from",
          "type": "address"
        },
        {
          "indexed": true,
          "internalType": "address",
          "name": "to",
          "type": "address"
        },
        {
          "indexed": true,
          "internalType": "uint256",
          "name": "tokenId",
          "type": "uint256"
        }
      ],
      "name": "Transfer",
      "type": "event"
    },
    {
      "inputs": [
        {
          "internalType": "address",
          "name": "to",
          "type": "address"
        },
        {
          "internalType": "uint256",
          "name": "tokenId",
          "type": "uint256"
        }
      ],
      "name": "approve",
      "outputs": [],
      "stateMutability": "nonpayable",
      "type": "function"
    },
    {
      "inputs": [
        {
          "internalType": "address",
          "name": "owner",
          "type": "address"
        }
      ],
      "name": "balanceOf",
      "outputs": [
        {
          "internalType": "uint256",
          "name": "",
          "type": "uint256"
        }
      ],
      "stateMutability": "view",
      "type": "function"
    },
    {
      "inputs": [
        {
          "internalType": "uint256",
          "name": "tokenId",
          "type": "uint256"
        }
      ],
      "name": "getApproved",
      "outputs": [
        {
          "internalType": "address",
          "name": "",
          "type": "address"
        }
      ],
      "stateMutability": "view",
      "type": "function"
    },
    {
      "inputs": [
        {
          "internalType": "uint256",
          "name": "tokenId",
          "type": "uint256"
        }
      ],
      "name": "getSoul",
      "outputs": [
        {
          "internalType": "uint128",
          "name": "",
          "type": "uint128"
        },
        {
          "internalType": "uint128",
          "name": "",
          "type": "uint128"
        }
      ],
      "stateMutability": "view",
      "type": "function"
    },
    {
      "inputs": [
        {
          "internalType": "uint256",
          "name": "tokenId",
          "type": "uint256"
        },
        {
          "internalType": "uint128",
          "name": "amount",
          "type": "uint128"
        }
      ],
      "name": "grow",
      "outputs": [],
      "stateMutability": "nonpayable",
      "type": "function"
    },
    {
      "inputs": [
        {
          "internalType": "address",
          "name": "owner",
          "type": "address"
        },
        {
          "internalType": "address",
          "name": "operator",
          "type": "address"
        }
      ],
      "name": "isApprovedForAll",
      "outputs": [
        {
          "internalType": "bool",
          "name": "",
          "type": "bool"
        }
      ],
      "stateMutability": "view",
      "type": "function"
    },
    {
      "inputs": [],
      "name": "mintIdentity",
      "outputs": [],
      "stateMutability": "nonpayable",
      "type": "function"
    },
    {
      "inputs": [],
      "name": "name",
      "outputs": [
        {
          "internalType": "string",
          "name": "",
          "type": "string"
        }
      ],
      "stateMutability": "view",
      "type": "function"
    },
    {
      "inputs": [],
      "name": "owner",
      "outputs": [
        {
          "internalType": "address",
          "name": "",
          "type": "address"
        }
      ],
      "stateMutability": "view",
      "type": "function"
    },
    {
      "inputs": [
        {
          "internalType": "uint256",
          "name": "tokenId",
          "type": "uint256"
        }
      ],
      "name": "ownerOf",
      "outputs": [
        {
          "internalType": "address",
          "name": "",
          "type": "address"
        }
      ],
      "stateMutability": "view",
      "type": "function"
    },
    {
      "inputs": [],
      "name": "renounceOwnership",
      "outputs": [],
      "stateMutability": "nonpayable",
      "type": "function"
    },
    {
      "inputs": [
        {
          "internalType": "address",
          "name": "from",
          "type": "address"
        },
        {
          "internalType": "address",
          "name": "to",
          "type": "address"
        },
        {
          "internalType": "uint256",
          "name": "tokenId",
          "type": "uint256"
        }
      ],
      "name": "safeTransferFrom",
      "outputs": [],
      "stateMutability": "nonpayable",
      "type": "function"
    },
    {
      "inputs": [
        {
          "internalType": "address",
          "name": "from",
          "type": "address"
        },
        {
          "internalType": "address",
          "name": "to",
          "type": "address"
        },
        {
          "internalType": "uint256",
          "name": "tokenId",
          "type": "uint256"
        },
        {
          "internalType": "bytes",
          "name": "data",
          "type": "bytes"
        }
      ],
      "name": "safeTransferFrom",
      "outputs": [],
      "stateMutability": "nonpayable",
      "type": "function"
    },
    {
      "inputs": [
        {
          "internalType": "uint256",
          "name": "tokenId",
          "type": "uint256"
        },
        {
          "internalType": "uint128",
          "name": "severity",
          "type": "uint128"
        }
      ],
      "name": "scar",
      "outputs": [],
      "stateMutability": "nonpayable",
      "type": "function"
    },
    {
      "inputs": [
        {
          "internalType": "address",
          "name": "operator",
          "type": "address"
        },
        {
          "internalType": "bool",
          "name": "approved",
          "type": "bool"
        }
      ],
      "name": "setApprovalForAll",
      "outputs": [],
      "stateMutability": "nonpayable",
      "type": "function"
    },
    {
      "inputs": [
        {
          "internalType": "uint256",
          "name": "",
          "type": "uint256"
        }
      ],
      "name": "souls",
      "outputs": [
        {
          "internalType": "uint128",
          "name": "vitality",
          "type": "uint128"
        },
        {
          "internalType": "uint128",
          "name": "scars",
          "type": "uint128"
        }
      ],
      "stateMutability": "view",
      "type": "function"
    },
    {
      "inputs": [
        {
          "internalType": "bytes4",
          "name": "interfaceId",
          "type": "bytes4"
        }
      ],
      "name": "supportsInterface",
      "outputs": [
        {
          "internalType": "bool",
          "name": "",
          "type": "bool"
        }
      ],
      "stateMutability": "view",
      "type": "function"
    },
    {
      "inputs": [],
      "name": "symbol",
      "outputs": [
        {
          "internalType": "string",
          "name": "",
          "type": "string"
        }
      ],
      "stateMutability": "view",
      "type": "function"
    },
    {
      "inputs": [
        {
          "internalType": "uint256",
          "name": "tokenId",
          "type": "uint256"
        }
      ],
      "name": "tokenURI",
      "outputs": [
        {
          "internalType": "string",
          "name": "",
          "type": "string"
        }
      ],
      "stateMutability": "view",
      "type": "function"
    },
    {
      "inputs": [
        {
          "internalType": "address",
          "name": "from",
          "type": "address"
        },
        {
          "internalType": "address",
          "name": "to",
          "type": "address"
        },
        {
          "internalType": "uint256",
          "name": "tokenId",
          "type": "uint256"
        }
      ],
      "name": "transferFrom",
      "outputs": [],
      "stateMutability": "nonpayable",
      "type": "function"
    },
    {
      "inputs": [
        {
          "internalType": "address",
          "name": "newOwner",
          "type": "address"
        }
      ],
      "name": "transferOwnership",
      "outputs": [],
      "stateMutability": "nonpayable",
      "type": "function"
    }
  ],
  "bytecode": "0x6080346200037e576001600160401b039060408181018381118382101762000368578152601082526020916f47656d696e7a69204964656e7469747960801b838201528151938285018581108282111762000368578352600585526411d4d3d55360da1b84860152815181811162000368576000948554916001948584811c941680156200035d575b8385101462000349578190601f94858111620002f6575b5083908583116001146200029257899262000286575b5050600019600383901b1c191690851b1786555b8651928311620002725783548481811c9116801562000267575b8282101462000253578281116200020b575b5080918311600114620001a457508495829394959262000198575b5050600019600383901b1c191690821b1790555b3315620001805760068054336001600160a01b03198216811790925591519290916001600160a01b0316907f8be0079c531659141344cd1fd0a4f28419497f9722a3daafe3b4186f6b6457e09080a36112959081620003848239f35b51631e4fbdf760e01b81526004810191909152602490fd5b01519050388062000110565b90601f198316968487528287209287905b898210620001f3575050838596979810620001d9575b505050811b01905562000124565b015160001960f88460031b161c19169055388080620001cb565b808785968294968601518155019501930190620001b5565b8487528187208380860160051c82019284871062000249575b0160051c019085905b8281106200023d575050620000f5565b8881550185906200022d565b9250819262000224565b634e487b7160e01b87526022600452602487fd5b90607f1690620000e3565b634e487b7160e01b86526041600452602486fd5b015190503880620000b5565b898052848a208894509190601f1984168b5b87828210620002df5750508411620002c5575b505050811b018655620000c9565b015160001960f88460031b161c19169055388080620002b7565b8385015186558b97909501949384019301620002a4565b9091508880528389208580850160051c8201928686106200033f575b918991869594930160051c01915b828110620003305750506200009f565b8b815585945089910162000320565b9250819262000312565b634e487b7160e01b88526022600452602488fd5b93607f169362000088565b634e487b7160e01b600052604160045260246000fd5b600080fdfe6080604081815260048036101561001557600080fd5b600092833560e01c90816301ffc9a714610c765750806306fdde0314610bab578063081812fc14610b70578063095ea7b314610a9457806323b872dd14610a7c578063246a01f714610a2f57806324dd86551461096857806342842e0e146109395780636352211e1461090857806370a08231146108db578063715018a61461087e5780637f0df6841461019c5780638da5cb5b1461085557806395d89b411461073c578063a22cb4651461069b578063a68bfa6e14610317578063b88d4fde14610282578063c87b56dd14610233578063e985e9c5146101e1578063f06938991461019c5763f2fde38b1461010a57600080fd5b3461019857602036600319011261019857610123610d22565b9061012c610e1e565b6001600160a01b03918216928315610182575050600654826bffffffffffffffffffffffff60a01b821617600655167f8be0079c531659141344cd1fd0a4f28419497f9722a3daafe3b4186f6b6457e08380a380f35b51631e4fbdf760e01b8152908101849052602490fd5b8280fd5b50346101985760203660031901126101985735825260086020908152918190205490516001600160801b038216815260809190911c91810191909152604090f35b0390f35b50503461022f578060031936011261022f5760ff81602093610201610d22565b610209610d3d565b6001600160a01b0391821683526005875283832091168252855220549151911615158152f35b5080fd5b5091903461022f57602036600319011261022f576102546101dd93356110a5565b5081815161026181610dae565b5280519161026e83610dae565b825251918291602083526020830190610ce2565b5090346101985760803660031901126101985761029d610d22565b6102a5610d3d565b60443591856064359567ffffffffffffffff871161022f573660238801121561022f57860135956102e16102d888610e02565b96519687610de0565b868652366024888301011161022f578661031497602460209301838901378601015261030e838383610e83565b336110e0565b80f35b5091903461022f578160031936011261022f5761033333610e4a565b6106595760075490600019908183146106465760018301600755805161035881610dae565b848152331561062f578385526020926002845260018060a01b03808488205416151580610627575b6105c75785908188526002865284882054168015159283610595575b503380895260038752858920805460010190558289526002875285892080546001600160a01b03191682179055907fddf252ad1be2c89b69c2b068fc378daa952ba7f163c4a11628f55a4df523b3ef8980a461057e57333b610463575b5080519181830183811067ffffffffffffffff821117610450578252600a83528281018581529385526008905283209051915160801b6001600160801b0319166001600160801b0392909216919091179055905080f35b634e487b7160e01b865260418752602486fd5b8193919594955183818061049e630a85bd0160e11b95868352338b8401528b6024840152876044840152608060648401526084830190610ce2565b03818a335af187918161053a575b5061050a575050503d600014610501573d6104c681610e02565b906104d384519283610de0565b81528094823d92013e5b835193846104fb578251633250574960e11b81523381860152602490fd5b84925001fd5b606093506104dd565b9495949193916001600160e01b0319160361052557386103f9565b51633250574960e11b81523381860152602490fd5b9091508481813d8311610577575b6105528183610de0565b8101031261057357516001600160e01b0319811681036105735790386104ac565b8780fd5b503d610548565b81516339e3563760e11b8152808701869052602490fd5b600083815260046020526040902080546001600160a01b0319169055818952600387528589209081540190553861039c565b835162461bcd60e51b8152808901869052603460248201527f566f74726520616d6520706f72746520766f7320636963617472696365732e2060448201527322b636329032b9ba1034b73b32b73230b136329760611b6064820152608490fd5b506001610380565b8151633250574960e11b8152808701869052602490fd5b634e487b7160e01b845260118552602484fd5b5162461bcd60e51b8152602081840152601b60248201527f556e65207365756c6520616d652070617220706572736f6e6e652e00000000006044820152606490fd5b5090346101985780600319360112610198576106b5610d22565b9060243591821515809303610738576001600160a01b03169283156107235750338452600560205280842083855260205280842060ff1981541660ff8416179055519081527f17307eab39ab6107e8899845ad3d59bd9653f200f220920489ca2b5937696c3160203392a380f35b836024925191630b61174360e31b8352820152fd5b8480fd5b5091346108525780600319360112610852578151918160019283549384811c91818616958615610848575b6020968785108114610835578899509688969785829a52918260001461080e5750506001146107b3575b5050506101dd92916107a4910385610de0565b51928284938452830190610ce2565b91908693508083527fb10e2d527612073b26eecdfd717e6a320cf44b4afac2b0732d9fcbe2b7fa0cf65b8284106107f657505050820101816107a46101dd610791565b8054848a0186015288955087949093019281016107dd565b60ff19168782015293151560051b860190930193508492506107a491506101dd9050610791565b634e487b7160e01b835260228a52602483fd5b92607f1692610767565b80fd5b50503461022f578160031936011261022f5760065490516001600160a01b039091168152602090f35b8334610852578060031936011261085257610897610e1e565b600680546001600160a01b0319811690915581906001600160a01b03167f8be0079c531659141344cd1fd0a4f28419497f9722a3daafe3b4186f6b6457e08280a380f35b50503461022f57602036600319011261022f576020906109016108fc610d22565b610e4a565b9051908152f35b5091346108525760203660031901126108525750610928602092356110a5565b90516001600160a01b039091168152f35b50503461022f576103149061094d36610d53565b9192519261095a84610dae565b85845261030e838383610e83565b50346101985761097736610d88565b9290610981610e1e565b80855260086020526109bd82862061099d86825460801c61122e565b81546001600160801b031660809190911b6001600160801b031916179055565b845260086020528320918254916001600160801b03809216928383821611600014610a1857508354928284160390828211610a05575016906001600160801b03191617905580f35b634e487b7160e01b865260119052602485fd5b6001600160801b0319166001179093555082915050f35b50503461022f57610a3f36610d88565b9190610a49610e1e565b83526008602052822090815490610a6a6001600160801b039182841661122e565b16906001600160801b03191617905580f35b833461085257610314610a8e36610d53565b91610e83565b509034610198578060031936011261019857610aae610d22565b91602435610abb816110a5565b33151580610b5d575b80610b34575b610b1e576001600160a01b039485169482918691167f8c5be1e5ebec7d5bd14f71427d1e84f3dd0314c0f7b2291e5b200ac8c7c3b9258880a48452602052822080546001600160a01b031916909117905580f35b835163a9fbf51f60e01b81523381850152602490fd5b506001600160a01b03811686526005602090815284872033885290528386205460ff1615610aca565b506001600160a01b038116331415610ac4565b503461019857602036600319011261019857918260209335610b91816110a5565b50825283528190205490516001600160a01b039091168152f35b50913461085257806003193601126108525781519181825492600184811c91818616958615610c6c575b6020968785108114610835578899509688969785829a52918260001461080e575050600114610c11575050506101dd92916107a4910385610de0565b91908693508280527f290decd9548b62a8d60345a988386fc84ba6bc95484008f6362f93160ef3e5635b828410610c5457505050820101816107a46101dd610791565b8054848a018601528895508794909301928101610c3b565b92607f1692610bd5565b92505034610198576020366003190112610198573563ffffffff60e01b811680910361019857602092506380ac58cd60e01b8114908115610cd1575b8115610cc0575b5015158152f35b6301ffc9a760e01b14905038610cb9565b635b5e139f60e01b81149150610cb2565b919082519283825260005b848110610d0e575050826000602080949584010152601f8019910116010190565b602081830181015184830182015201610ced565b600435906001600160a01b0382168203610d3857565b600080fd5b602435906001600160a01b0382168203610d3857565b6060906003190112610d38576001600160a01b03906004358281168103610d3857916024359081168103610d38579060443590565b6040906003190112610d3857600435906024356001600160801b0381168103610d385790565b6020810190811067ffffffffffffffff821117610dca57604052565b634e487b7160e01b600052604160045260246000fd5b90601f8019910116810190811067ffffffffffffffff821117610dca57604052565b67ffffffffffffffff8111610dca57601f01601f191660200190565b6006546001600160a01b03163303610e3257565b60405163118cdaa760e01b8152336004820152602490fd5b6001600160a01b03168015610e6a57600052600360205260406000205490565b6040516322718ad960e21b815260006004820152602490fd5b6001600160a01b03918216929091831561108c5760009282845260209460028652604095838787205416151580611084575b611024579084918287526002815284888820541696879133151580610f8e575b509060027fddf252ad1be2c89b69c2b068fc378daa952ba7f163c4a11628f55a4df523b3ef9284610f5b575b858352600381528b8320805460010190558683525289812080546001600160a01b0319168517905580a41692838303610f3a5750505050565b6064945051926364283d7b60e01b8452600484015260248301526044820152fd5b600087815260046020526040902080546001600160a01b0319169055848352600381528b83208054600019019055610f01565b91939450915080610fe3575b15610faa57859291879138610ed5565b878688610fc7576024915190637e27328960e01b82526004820152fd5b604491519063177e802f60e01b82523360048301526024820152fd5b503387148015611008575b80610f9a5750858252600481523385898420541614610f9a565b5086825260058152878220338352815260ff8883205416610fee565b60849087519062461bcd60e51b82526004820152603460248201527f566f74726520616d6520706f72746520766f7320636963617472696365732e2060448201527322b636329032b9ba1034b73b32b73230b136329760611b6064820152fd5b506001610eb5565b604051633250574960e11b815260006004820152602490fd5b6000818152600260205260409020546001600160a01b03169081156110c8575090565b60249060405190637e27328960e01b82526004820152fd5b90939192833b6110f2575b5050505050565b604051630a85bd0160e11b8082526001600160a01b03938416600483015295831660248201526044810191909152608060648201529492169260209291859061113f906084830190610ce2565b039483816000978189895af18691816111ea575b506111b4575050503d6000146111ab573d61116d81610e02565b9061117b6040519283610de0565b81528093823d92013e5b825192836111a657604051633250574960e11b815260048101849052602490fd5b019050fd5b60609250611185565b919450915063ffffffff60e01b16036111d2575038808080806110eb565b60249060405190633250574960e11b82526004820152fd5b9091508481813d8311611227575b6112028183610de0565b8101031261122357516001600160e01b031981168103611223579038611153565b8680fd5b503d6111f8565b9190916001600160801b038080941691160191821161124957565b634e487b7160e01b600052601160045260246000fdfea2646970667358221220d4a5e7161e743fd3f8ff249ead9afe9e318c11166806abb4af15f3bf24fda3fe64736f6c63430008140033",
  "linkReferences": {},
  "deployedLinkReferences": {}
}